:020000040800F2
:10000000FCFF002011180000F5170000F517000094
:10001000F5170000F5170000F5170000F5170000B0
:10002000F5170000F5170000F5170000F5170000A0
:10003000F5170000F5170000F5170000F517000090
:10004000F5170000F5170000F5170000F517000080
:10005000F5170000F5170000F5170000F517000070
:10006000F5170000F5170000F5170000F517000060
:10007000F5170000F5170000F5170000F517000050
:10008000F5170000F5170000F5170000F517000040
:10009000F5170000F5170000F5170000F517000030
:1000A000F5170000F5170000F5170000F517000020
:1000B000F5170000F5170000F5170000F517000010
:1000C000F5170000F5170000F5170000F517000000
:1000D000F5170000F5170000F5170000F5170000F0
:1000E000F5170000F5170000F5170000F5170000E0
:1000F000F5170000F5170000F5170000F5170000D0
:10010000F5170000F5170000F5170000F5170000BF
:10011000F5170000F5170000F5170000F5170000AF
:10012000F5170000F5170000F5170000F51700009F
:10013000F5170000F5170000F5170000F51700008F
:10014000F5170000F5170000F5170000F51700007F
:1001500001480068704700BFC800002081B01949FD
:1001600000EA0101084600220EE0042022E00820F7
:1001700020E010201EE020201CE040201AE080201B
:1001800018E040F2001015E00F498842EDD00F4909
:100190008842ECD00E498842EBD00E498842EAD022
:1001A0000D498842E9D00D498842E8D00C4988427F
:1001B000E7D010460B49096841EA000209490A6084
:1001C00001B0704700FCFFFF00080140000C014037
:1001D000001001400014014000180140001C0140C3
:1001E000002001401810024083B0CDF800E000F07C
:1001F000FF031A09104603F00F02134614E0194AD0
:1002000002921FE0184A02921CE0184A029219E07A
:10021000174A029216E0174A029213E0164A029217
:1002200010E0164A02920DE00028E8D00128E9D03B
:100230000228EAD00328EBD00428ECD00528EDD022
:100240000628EED0012212B29A40ADF8042002989E
:100250000A46BDF8041000F06DFADDF800E003B0C6
:10026000704700BF00080140000C01400010014031
:100270000014014000180140001C01400020014012
:1002800082B0CDF800E0034619460191FFF760FF08
:1002900040F2E83100FB01F201990A601F49097838
:1002A000C1F30311C8B21E4909180878C0B21A1D5B
:1002B0001968C140116019490988C1F3022188B247
:1002C000174909180878C0B203F20802191D096815
:1002D000C140116011490988C1F3C22188B2104997
:1002E00009180878C0B203F20C02191D0968C14050
:1002F00011600A490988C1F3813188B20949091896
:100300000978C8B203F2100203F20C010968B1FBCC
:10031000F0F11160DDF800E002B070470410024017
:10032000001C0000740D000081B0CDF800E081B227
:10033000034800F0F9FADDF800E001B0704700BFB3
:100340000038004081B0CDF800E081B2034800F0F1
:10035000EBFADDF800E001B0704700BF003001406B
:1003600081B0CDF800E081B2034800F0DDFADDF89D
:1003700000E001B0704700BF003C004081B0CDF804
:1003800000E0012252B23E490A6000F268010B68A7
:100390006FF0006103EA0102144603F00061C90E28
:1003A0000B4602F00041B1F1004F02D135490A6815
:1003B00001E035490A6804F47021090C0E464FF635
:1003C000FF7104EA01010D4604F44011B1F5401F2C
:1003D0000DD16FF0706102EA01010E462A490A68E8
:1003E0006FF070610A4028490A60324616E004F452
:1003F0008011B1F5801F09D14FF00301B140C9430D
:1004000002EA010141F070610A4607E0610D09014D
:1004100005FA01F1C9430A4042F070622BB1610D47
:10042000090105FA01F10A43FFE704F00041B1F1C7
:10043000004F02D113490A6001E013490A6040F2FB
:10044000000A81464FEA8A0109EB01010968B1F10E
:10045000FF3F10D009F134014FEA8A03C918096837
:100460000A4609EB0301096808461146FFF7BCFE7E
:100470000AF1010AE6E7DDF800E001B0704700BFCD
:10048000000342421C0001400400014081B0ADF86D
:1004900000100146BDF800000B68C3F3C01202B99A
:1004A000FAE70A1D106001B07047FFFF81B000231A
:1004B0000360CB009BB242EA030304689BB244EAA8
:1004C00003030360051D13141C462B6864F38203A9
:1004D0002B6000F21C0500242B6864F3CB232B60F7
:1004E0000124036864F38613036001B07047FFFFC3
:1004F00089B0CDF800E0834698B28C46BDF8241050
:100500000A9E04ACADF80410ADF808002046FFF7D1
:10051000B7FEBDF80800BDF80410644CA34512D125
:1005200001256DB2624C2560624D634C2560634DC0
:10053000634C2560634D644C2560644D644C2560BC
:10054000079C039456E0634CA34512D101256DB27C
:10055000614C2560614D584C2560614D584C2560BB
:10056000604D594C2560604D594C2560069C0394A4
:1005700040E05E4CA34512D101256DB25C4C256074
:100580005C4D4D4C25605C4D4D4C25605B4D4E4C9B
:1005900025605B4D4E4C2560069C03942AE0594C27
:1005A000A34512D101256DB2574C2560574D424CE1
:1005B0002560574D424C2560564D434C2560564DA5
:1005C000434C2560069C039414E0544CA34511D180
:1005D00001256DB2524C2560524D374C2560524D6D
:1005E000374C2560514D384C2560514D384C2560B5
:1005F000069C0394ADF80410ADF808003046FFF7F0
:10060000BDFEBDF80800BDF804100BF11005002474
:100610002C600BF110052C680C432C600BF10C05C1
:1006200000242C6018B140F4806080B2FFE70BF129
:100630000C052C6804432C600BF10C060125346872
:1006400065F34D3434600BF10C060125346865F315
:10065000C30434600BF10C060125346865F3820491
:1006600034600BF1140500242C60039D19246543AC
:100670004FEA8C04B5FBF4F76424B7FBF4F42601CD
:10068000350964246C433C1B240104F232056424C4
:10069000B5FBF4F404F00F0446EA04040BF108057A
:1006A000A4B22C60DDF800E009B0704700380140CA
:1006B00038034242CD090000D4000020FFFFFFFFB5
:1006C000D8000020FFFFFFFFDC000020FFFFFFFF3E
:1006D000E000002000440040C4034242490A0000F8
:1006E000FFFFFFFFFFFFFFFFFFFFFFFF004800408E
:1006F000C803424289090000FFFFFFFFFFFFFFFF21
:10070000FFFFFFFF004C0040CC034242990B00006A
:10071000FFFFFFFFFFFFFFFFFFFFFFFF0050004055
:10072000D0034242B50B0000FFFFFFFFFFFFFFFFBA
:10073000FFFFFFFF81B0CDF800E08CB21546774B8C
:1007400000EA03031E461846FFF708FDB4F1FF0F49
:100750000CD1734B9D4203D14FF033333360D9E05A
:10076000422D03D14FF044333360D3E04FF6FF7393
:100770009C4214D16A4B9D4207D14FF03333336012
:10078000341D4FF033332360C4E0422D07D14FF0C6
:1007900044333360341D4FF044332360BAE000210A
:1007A000002005F001030BB100211DE005F002035C
:1007B00033B105F4C0730BB1082100E0042113E04C
:1007C00005F0040333B105F020030BB1042100E070
:1007D000002109E005F0080333B105F020030BB157
:1007E0000C2100E00821FFE74E4B05EA03030BB1A3
:1007F000032009E005F400730BB1022004E005F4C6
:1008000080630BB10120FFE705F00C030BB101433E
:10081000FFE704F0FF039BB2002B3BD037680020BA
:100820001FFA84F832462E4608282CD24FF00103D6
:1008300003FA00F408EA0403A34222D185004FF032
:100840000F03AB40DB4307EA030401FA05F344EA74
:1008500003031D4606F48173B3F5817F05D102F2CF
:1008600014044FF001038340236006F08203822BBF
:1008700005D102F210044FF00103834023602F469C
:10088000FFE7401CD0E717601FFA88F00F4631469B
:10089000164602E00F462946A0B2B0F1FF0F39D943
:1008A000331DD3F800800022082A30D202F2080457
:1008B0004FF0010303FA04F400EA0403A34224D135
:1008C00095004FF00F03AB40DB4308EA030807FA3B
:1008D00005F348EA030801F48173B3F5817F07D17A
:1008E00006F2140502F208044FF00103A3402B6046
:1008F00001F08203822B07D106F2100502F20804F0
:100900004FF00103A3402B60FFE7521CCCE7331DDF
:10091000C3F80080DDF800E001B0704700FCFFFF85
:10092000140008000008080081B000F20C021160F9
:1009300000F208021368C3F3000202B9F8E700F2FC
:100940000C02126890B201B07047FFFF83B0CDF87F
:1009500000E0ADF808100190BDF80830BDF808209F
:10096000521EADF808204BB10020064C2468A04769
:10097000019A1070019A521C0192EDE7DDF800E037
:1009800003B07047B400002081B0CDF800E081B220
:100990000348FFF77BFDDDF800E001B0704700BFC2
:1009A0000048004081B0CDF800E0019D2C4610B415
:1009B00008B493B28AB201460348FFF799FD02B02A
:1009C000DDF800E001B070470044004081B0CDF890
:1009D00000E081B20348FFF759FDDDF800E001B007
:1009E000704700BF0038014081B0CDF800E081B20F
:1009F0000348FFF799FFDDF800E001B0704700BF42
:100A00000030014081B0CDF800E0019D2C4610B4CB
:100A100008B493B28AB201460348FFF769FD02B0F9
:100A2000DDF800E001B070470038014081B0CDF83A
:100A300000E081B20348FFF777FFDDF800E001B086
:100A4000704700BF0038004081B0CDF800E081B2AF
:100A50000348FFF71BFDDDF800E001B0704700BF61
:100A60000044004081B0CDF800E081B20348FFF7B8
:100A70005BFFDDF800E001B0704700BF003C0040C4
:100A800083B0CDF800E08AB2014690B283B2421E34
:100A900090B26BB10A78D4B2ADF804000291A0B262
:100AA000054C2468A0470299BDF80400491CEDE7F5
:100AB000DDF800E003B07047BC00002083B0CDF843
:100AC00000E08DF8040002910B4C0C4B1C600C4CA8
:100AD0000C4B1C60012464B20B4B1C601046FFF7EA
:100AE0004DFC029A9DF804100848FFF7DFFCDDF882
:100AF00000E003B0704700BF61030000CC0000209D
:100B0000650A0000D0000020BC034242003C0040C7
:100B100081B0CDF800E0044A89B2FFF70BFEDDF8A2
:100B200000E001B0704700BF1400080082B0CDF8AB
:100B300000E00DF1060340F04002D2B242F00102A3
:100B40001A705A1C117000200C4C2468A0470DF13B
:100B5000060202211046FFF793FF01AA0221104668
:100B6000FFF7F4FE0120054C2468A04701AA521C9F
:100B70001278D0B2DDF800E002B07047C400002067
:100B800081B0CDF800E04FF0420289B2FFF7D2FD0C
:100B9000DDF800E001B0704781B0CDF800E081B22F
:100BA0000348FFF773FCDDF800E001B0704700BFB9
:100BB000004C004081B0CDF800E081B20348FFF75F
:100BC00065FCDDF800E001B0704700BF0050004058
:100BD00081B0CDF800E0019D2C4610B408B493B26A
:100BE0008AB201460348FFF783FC02B0DDF800E05B
:100BF00001B070470048004001490860704700BFDD
:100C00009881224201490860704700BF9C812142BF
:100C100001490860704700BF98812142014908607E
:100C2000704700BF9481224201490860704700BFAD
:100C3000B001224201490860704700BFAC01224266
:100C400001490860704700BFB08122420149086035
:100C5000704700BFB081224281B0CDF800E013217F
:100C6000FFF764FFDDF800E001B0704781B00A468D
:100C700081B200208DB21146052805D20B18202222
:100C80001A70401CC0B2F7E70B1800221A70401E01
:100C9000C0B20C180A23B5FBF3F203FB125292B256
:100CA000303222700A22B5FBF2F292B295B202B94A
:100CB00002E0401EC0B2ECE701B0704782B0CDF850
:100CC00000E001AC40F040032370631C1970A31CCA
:100CD0001A700020074C2468A04701AB0421184675
:100CE000FFF7CEFE0120034C2468A047DDF800E0AA
:100CF00002B07047C400002081B0CDF800E0CAB255
:100D00001421FFF7DBFFDDF800E001B07047FFFFC3
:100D100000F230011C310A6805490A6000F208013E
:100D20000A6804490A60011D0A6803490A6070479D
:100D3000C0000020C4000020B80000200268034961
:100D40000A60011D0A6802490A607047BC00002061
:100D5000B400002081B0CDF800E00178CCB2A0B2A0
:100D6000034C2468A0470020DDF800E001B0704784
:100D7000B00000200204060844F67F77C0F2120794
:100D80007F1EFDD100BF00BF00BF00BF00BF704786
:100D900001490860704700BFA8012242014908606C
:100DA000704700BF9001214281B0CDF800E00949B1
:100DB00002B440F2000340F2000240F20001FFF7EB
:100DC000F1FD01B0044A05490A600020DDF800E0A9
:100DD00001B070475C1A0000490A0000B000002012
:100DE00081B0CDF800E0094902B440F2000340F2BE
:100DF000000240F20001FFF705FE01B0044A054978
:100E00000A600020DDF800E001B07047C81A000059
:100E1000CD090000B000002001490860704700BF04
:100E2000A801224201490860704700BFB4812242F4
:100E300001490860704700BF8801224281B0CDF8A7
:100E400000E0011D0A680168C8B21146034AFFF7B5
:100E500035FE0020DDF800E001B07047341B0000D3
:100E600081B0CDF800E0A9E0012905D140F22001D0
:100E70006548FFF785FE04E040F220016248FFF775
:100E800047FEBBE0012905D140F208015F48FFF7AA
:100E900077FE04E040F208015C48FFF739FEADE060
:100EA000012905D144F200015948FFF769FE04E029
:100EB00044F200015648FFF72BFE9FE0012905D1BF
:100EC00040F200415148FFF75BFE04E040F2004170
:100ED0004E48FFF71DFE91E0012905D140F60001C3
:100EE0004A48FFF74DFE04E040F600014748FFF78F
:100EF0000FFE83E0012905D141F200014348FFF7CD
:100F00003FFE04E041F200014048FFF701FE75E0BA
:100F1000012905D141F200013D48FFF731FE04E00F
:100F200041F200013A48FFF7F3FD67E0012905D1DE
:100F300040F600013648FFF723FE04E040F60001CA
:100F40003348FFF7E5FD59E0012905D140F24001A2
:100F50002F48FFF715FE04E040F240012C48FFF750
:100F6000D7FD4BE0012905D140F220012848FFF7C9
:100F700007FE04E040F220012548FFF7C9FD3DE0EF
:100F8000012905D140F240012248FFF7F9FD04E0B4
:100F900040F240011F48FFF7BBFD2FE0012905D1BA
:100FA00040F280011B48FFF7EBFD04E040F28001B6
:100FB0001848FFF7ADFD21E0012020E000283FF4B4
:100FC00053AF01283FF45EAF02283FF469AF032816
:100FD0003FF474AF04283FF47FAF05283FF48AAF95
:100FE00006283FF495AF0728A0D00828ACD00928E0
:100FF000B8D00A28C4D00B28D0D0DDE70020DDF817
:1010000000E001B0704700BF00080140001001403F
:1010100000140140000C014081B0CDF800E0A9E0CF
:10102000012905D140F210016548FFF7A9FD04E050
:1010300040F210016248FFF76BFDBBE0012905D1CA
:1010400040F204015F48FFF79BFD04E040F2040119
:101050005C48FFF75DFDADE0012905D142F20001DA
:101060005948FFF78DFD04E042F200015648FFF7B2
:101070004FFD9FE0012905D140F200415148FFF7A3
:101080007FFD04E040F200414E48FFF741FD91E052
:10109000012905D140F600014A48FFF771FD04E03F
:1010A00040F600014748FFF733FD83E0012905D1F1
:1010B00041F200014348FFF763FD04E041F2000103
:1010C0004048FFF725FD75E0012905D140F20101F7
:1010D0003B48FFF755FD04E040F201013848FFF7B7
:1010E00017FD67E0012905D140F200413648FFF7BE
:1010F00047FD04E040F200413348FFF709FD59E0A5
:10110000012905D140F200212F48FFF739FD04E005
:1011100040F200212C48FFF7FBFC4BE0012905D1F0
:1011200040F200112848FFF72BFD04E040F20011C7
:101130002548FFF7EDFC3DE0012905D140F24001D3
:101140002248FFF71DFD04E040F240011F48FFF771
:10115000DFFC2FE0012905D140F280011B48FFF799
:101160000FFD04E040F280011848FFF7D1FC21E0B8
:10117000012020E000283FF453AF01283FF45EAF88
:1011800002283FF469AF03283FF474AF04283FF40A
:101190007FAF05283FF48AAF06283FF495AF0728B4
:1011A000A0D00828ACD00928B8D00A28C4D00B2871
:1011B000D0D0DDE70020DDF800E001B0704700BFCF
:1011C000000801400010014000140140000C0140E3
:1011D00081B0CDF800E0094902B440F2000340F2CA
:1011E000000240F20001FFF7DDFB01B0044A0549AF
:1011F0000A600020DDF800E001B070475C1A0000D2
:10120000490A0000B000002081B0CDF800E0094993
:1012100002B440F2000340F2000240F20001FFF786
:10122000D7FC01B0044A05490A600020DDF800E05F
:1012300001B07047F019000089090000B0000020DB
:1012400081B0CDF800E0011D0A680168C8B21146FE
:10125000034AFFF733FC0020DDF800E001B07047DF
:10126000341B000001490860704700BFA081224282
:1012700001490860704700BFA4812242014908600B
:10128000704700BFA881224201490860704700BF33
:101290009881214201490860704700BF94012142B2
:1012A00001490860704700BF9C81214201490860E4
:1012B000704700BF8C01224201490860704700BF9F
:1012C000B001224201490860704700BFAC012242D0
:1012D00001490860704700BF800121420149086050
:1012E000704700BFB881224281B0014640F200053C
:1012F0002DB208460C460B46FFE70178202901D1A4
:1013000005B904E001252DB201782170641C024664
:10131000401C11780029F0D1184601B07047FFFF3A
:1013200082B0CDF800E000218DF8041028220A21B7
:10133000FFF7C4FC9DF8041049B901210020FFF714
:10134000DBFC0020FFF788FC8DF80400F2E7DDF8F5
:1013500000E002B07047FFFF81B0CDF800E05FFA17
:1013600081F95FFA82FA0FE05FFA8AF15FFA89F099
:10137000FFF752FE0DE05FFA8AF15FFA89F0FFF79E
:101380006FFD06E0012004E00028EDD00128F2D036
:10139000F8E7DDF800E001B07047FFFF81B0CDF85D
:1013A00000E00E46002183B2002805DA0121404208
:1013B00080B280B28FB201E098B28FB23146FFF7AF
:1013C00055FC06213446B8B2002908D963184A1ED4
:1013D00092B2A21812781A70491E89B2F4E720223C
:1013E000227070B1002081B2204642181278202A63
:1013F00002D1491C89B2F8E74A1E92B283182D2205
:101400001A70DDF800E001B07047FFFF81B0CDF841
:1014100000E08B4609E05846FFF710FD0AE0584609
:10142000FFF70EFF06E0012004E00028F3D00128BA
:10143000F5D0F8E7DDF800E001B0704781B0CDF8F5
:1014400000E001200A4C2468A047FFF795FC00202B
:10145000074C2468A047FFF78FFC0120044C246848
:10146000A047FFF789FCDDF800E001B0704700BF3E
:10147000B800002081B0CDF800E003460846FFF731
:101480005DFC1846FFF744FC0120034C2468A0478C
:10149000DDF800E001B07047C400002083B0CDF853
:1014A00000E0024610460D228DF808200A228DF831
:1014B00009201FE0FFF74EFC23E002782AB10190DB
:1014C000FFF748FC0198401CF7E71AE002782AB1C0
:1014D0000190FFF73FFC0198401CF7E702AA104675
:1014E000FFF738FC0DF109021046FFF733FC08E066
:1014F000062007E00029DDD00129DED00229E5D051
:10150000F6E70020DDF800E003B0704781B0CDF8C9
:1015100000E0CAB20921FFF7D1FBDDF800E001B01D
:101520007047FFFF81B0CDF800E0CAB20821FFF795
:10153000C5FBDDF800E001B07047FFFF81B0CDF8DA
:1015400000E011E00846FFF75FFE16E00846FFF7EF
:101550003FFE12E00846FFF743FC0EE00846FFF7A7
:1015600023FC0AE0012008E00028EBD00128EDD0A0
:101570002028EFD03028F1D0F4E7DDF800E001B00A
:101580007047FFFFFFFFFFFF81B0CDF800E00121B2
:101590002748018000212748017026480078082844
:1015A00041D223480088C1B20020FFF7A5FBFFF716
:1015B000E3FB0020FFF750FB1F4908701D4800782F
:1015C0001E49FFF7EBFE1E480121FFF767FF1B488E
:1015D000FFF78AFE02211948FFF760FF16480078DE
:1015E0001649FFF7DBFE17480121FFF757FF0221DD
:1015F0001248FFF753FF14480221FFF74FFF0C4931
:1016000008884000088045F2FF07C0F2252700BF88
:1016100000BF7F1EFDD100BF00BF00BF0549087895
:10162000401C0870B9E7DDF800E001B0704700BF6A
:101630007A0000207C0000207D0000207E00002039
:10164000550000205F0000206900002081B015488F
:10165000006840F00101134801601349134801601C
:1016600010480168124801400E4801600D480168A9
:101670006FF4802001400B4801600C4801686FF452
:10168000FE00014009480160064801686FF0A05063
:101690000140044801604FF000010648016001B0BC
:1016A000704700BF001002400000FFF0041002402D
:1016B000FFFFF6FE2C10024081B0CDF800E00122C1
:1016C00007210020FFF748FE002202210020FFF73B
:1016D00043FE002201210020FFF73EFE0C48014698
:1016E0000020FFF793FE42F280512020FFF726FFF3
:1016F00044F67F77C0F212077F1EFDD100BF00BF06
:1017000000BF00BF00BFDDF800E001B0704700BFC0
:10171000101C0000FFFFFFFF81B0CDF800E01A4968
:101720001A48FFF7A7FEFFF789FE41F6FF27C0F230
:10173000B7077F1EFDD100BF00BF00BF00BF00BFC5
:1017400013480221FFF7AAFE12480221FFF7A6FE66
:1017500011480221FFF7A2FE00210020FFF7E2FE60
:10176000FF210020FFF7D2FE0C480221FFF796FE72
:101770000B480221FFF792FE0020FFF7D1FDDDF8B4
:1017800000E001B0704700BF181C0000A01B000063
:101790000000002011000020220000203300002063
:1017A0004400002081B01CF8019B0BF8019BBBEBAF
:1017B0000A0FF8D101B0704781B04FF000094FF027
:1017C000000CBDEB0A0F04DCBDEB0B0F01DBD446B4
:1017D000EA464BF8049BBBEB0A0FFAD1BCEB0A0FAD
:1017E00005DDE246D9F800B00BF1040BF1E701B0DA
:1017F0007047FFFF81B0FEE701B0704781B002493A
:101800000248016001B0704740190100C800002083
:1018100000F00EF800F044FAFFF7F0FF00F000FAD5
:10182000FFF74AFFFFF778FFFFF7AEFEFCE7FEE7A2
:1018300081B0CDF800E0464A464B474C47494BF64D
:101840008030814206D94648006840F00201444891
:10185000016011E045F6C050814206D94048006859
:1018600040F001013E48016006E03D4801686FF02C
:10187000070001403A480160FFF7E8FE394803607D
:1018800039480460394802EA00013948016002F031
:10189000010040B119463648006800F002000028F7
:1018A00000D1F8E700E0194602F4803040B10B4661
:1018B0002F48006800F40030002800D1F8E700E06D
:1018C0000B4602F0805068B12948006840F0805112
:1018D000274801602648006800F00050002800D129
:1018E000F8E7FFE702F0806078B12148006840F037
:1018F00080611F48016011461A461D48006800F0CB
:101900000060002800D1F8E701E011461A4601F016
:10191000807070B11648006840F080711448016012
:1019200011461348006800F0007000B9F9E70A4654
:10193000FFE70C48006800F00C01900000F00C007C
:10194000814200D0F5E7DDF800E001B0704700BF4C
:101950008100010502841D004406010040190100B8
:1019600000200240041002402C100240FFFF0F0034
:10197000001002402D2D2D2D2D2D2D2D2D2D2D2DF9
:101980002D2D2D2D002020457870616E6420436C34
:1019900069636B2020002D2D2D2D2D2D2D2D2D2D0E
:1019A0002D2D2D2D2D2D0020436F6E6669677572CC
:1019B000696E672E2E2E20002D2D2D2D2D2D2D2DD7
:1019C0002D2D2D2D2D2D2D2D0020202020202020CF
:1019D0005241002020504F5254423A20002D2D2DCC
:1019E0002D2D2D2D2D2D2D2D2D2D2D2D2D00FFFFB0
:1019F0003800000039000000FFFFFFFF000000007A
:101A000000000000000000000000000000000000D6
:101A100000000000000000000000000000000000C6
:101A2000000000001808000018000000000000007E
:101A300000000000000000000000000000000000A6
:101A40000000000000000000000000000000000096
:101A50000000000000000000300014083500000005
:101A600036000000FFFFFFFF000000000000000044
:101A70000000000000000000000000000000000066
:101A80000000000000000000000000000000000056
:101A9000180800001800000000000000000000000E
:101AA0000000000000000000000000000000000036
:101AB0000000000000000000000000000000000026
:101AC0000000000008000008090000000A000000F3
:101AD000FFFFFFFF0000000000000000000000000A
:101AE00000000000000000000000000000000000F6
:101AF00000000000000000000000000018080000C6
:101B000018000000000000000000000000000000BD
:101B100000000000000000000000000000000000C5
:101B200000000000000000000000000000000000B5
:101B3000040000002A0000002B0000002C00000020
:101B4000FFFFFFFF00000000000000000000000099
:101B50000000000000000000000000000000000085
:101B60000000000000000000180800001808000035
:101B70001808000000000000000000000000000045
:101B80000000000000000000000000000000000055
:101B9000000000000000000000000000001120080C
:101BA0009D0D0000310E0000250E0000190E0000F2
:101BB000C5120000B9120000D11200007D12000011
:101BC000711200006512000089120000A1120000CD
:101BD000FFFFFFFFFFFFFFFFFFFFFFFFFFFFFFFF15
:101BE000FFFFFFFFFFFFFFFFFFFFFFFFFFFFFFFF05
:101BF000FFFFFFFFFFFFFFFFFFFFFFFFFFFFFFFFF5
:101C000000000000010203040102030406070809A2
:101C10000700000004030000650A000061030000E3
:101C200000B5DFF814B0DFF814A0DFF814C0FFF738
:101C3000B9FD00BD704700BF000000207A00002001
:101C400074190000FFFFFFFFFFFFFFFFFFFFFFFF13
:101C5000FFFFFFFFFFFFFFFFFFFFFFFFFFFFFFFF94
:101C6000FFFFFFFFFFFFFFFFFFFFFFFFFFFFFFFF84
:101C7000FFFFFFFFFFFFFFFFFFFFFFFFFFFFFFFF74
:101C8000FFFFFFFFFFFFFFFFFFFFFFFFFFFFFFFF64
:101C9000FFFFFFFFFFFFFFFFFFFFFFFFFFFFFFFF54
:101CA00000B5DFF810B0DFF810A0FFF785FD00BD2C
:101CB000704700BF00000020E4000020FFFFFFFF8E
:00000001FF
