:10000000ABEF0AF00000000000EF00F0000000007D
:0A0010000000000000000000F3D71C
:0E001C00010100B102D0899201D08982120048
:0E002A00010100B102D0899801D0898812002E
:0E003800010100B102D08D9201D08D82120024
:0E004600010100B102D08B9C01D08B8C120006
:0E005400010100B102D08B9601D08B86120004
:0E006200010100B102D08B9801D08B881200F2
:0E007000010100B102D08B9401D08B841200EC
:0E007E00010100B102D08A9201D08A821200E4
:0E008C00010100B102D08B9E01D08B8E1200BC
:0E009A00010100B102D08B9601D08B861200BE
:0E00A800010100B102D08B9801D08B881200AC
:0E00B600010100B102D08B9A01D08B8A12009A
:0E00C400010100B102D08B9E01D08B8E120084
:1000D2000F0121B302D00000FBD700C11CFF1200A8
:0E00E200010100B102D0899001D08980120086
:0E00F000010100B102D08B9001D08B80120074
:1000FE0000C1C9FF016A0150000A05E1000EC7B038
:0C010E00010E016EF8D7C9CF01F01200FD
:10011A0000C16AFF016A0150000A05E1000E68B0D9
:0C012A00010E016EF8D76ACF01F0120040
:0E013600ACB202D00000FCD700C1ADFF120039
:0E014400010100B102D08B9A01D08B8A12000B
:0E015200010100B102D08B9201D08B8212000D
:0E016000010100B102D08A9001D08A80120005
:0E016E00010100B102D08D9001D08D801200F1
:0E017C00010100B102D08B9601D08B861200DB
:0E018A00010100B102D08B9801D08B881200C9
:0E019800010100B102D08B9C01D08B8C1200B3
:0E01A600010100B102D08F9401D08F841200AD
:0E01B400010100B102D08F9201D08F821200A3
:0E01C200010100B102D08F9001D08F80120099
:0E01D000010100B102D08A9401D08A8412008D
:1001DE0000C1C9FF016A0150000A05E1000EC7B057
:0C01EE00010E016EF8D7C9CF00F012001E
:1001FA0000C16AFF016A0150000A05E1000E68B0F9
:0C020A00010E016EF8D76ACF00F0120060
:0E021600010100B102D08B9601D08B86120040
:0E022400010100B102D08B9801D08B8812002E
:0E023200010100B102D0899401D0898412002C
:0E024000010100B102D08D9601D08D86120012
:0E024E00010100B102D08B9801D08B88120004
:0E025C00010100B102D08B9601D08B861200FA
:0E026A00010100B102D08B9801D08B881200E8
:0E027800010100B102D08B9A01D08B8A1200D6
:0E028600010100B102D08D9401D08D841200D0
:0E029400010100B102D08B9601D08B861200C2
:1002A200F250026EF29E0500FF6A0150FE6E00508F
:0802B200FD6E02BEF28E120087
:1002BA000EC112F10FC113F110C100F011C101F00A
:1002CA00010E0101105F000E115B0050011014E0D5
:1002DA0091C0E1FF92C0E2FFE66A8FC000F090C0D1
:1002EA0001F0DADF12C1E1FF13C1E2FF00C0E6FF4D
:0A02FA000101124B132BE0D7120094
:100304000EC112F10FC113F110C100F011C101F0BF
:10031400010E0101105F000E115B0050011013E08B
:1003240095C0E1FF96C0E2FF12C1E9FF13C1EAFFE5
:10033400EECFE6FF93C000F094C001F0B0DF0101FE
:08034400124B132BE1D712004C
:10034C00D20E0001D96F000EDA6F000EDB6F010EBA
:10035C00DC6FFF0EE56FFF0EE66F000EE76F000E11
:10036C00E86FFF0EF16FFF0EF26F000EF36F000ED1
:10037C00F46FFF0EED6FFF0EEE6F000EEF6F000EC1
:10038C00F06F0F01218B900E226F98849892A4AA83
:0A039C0003D01DCF00F0FBD71200C4
:1003A600086A096A100E0C6E0134083609360450C4
:1003B600085E0550D8A0053C095ED8B007D00450A9
:1003C60008260550D8B0053C0926D89000360136D7
:0603D6000C2EEAD7120014
:1003DC00DE0E0001E16F010EE26F000EE36F010E05
:1003EC00E46FFE0EDD6F000EDE6F000EDF6F010E90
:1003FC00E06F949A01010751040A02E1948601D03E
:10040C0094969488C66AC79CC79E0751C612095118
:10041C00C6120851C712095305E00A51000AD8B494
:0E042C00C78C03D00A53D8A4C78CC68A12000E
:10043A00400E010107110A6F08C10BF109C10CF145
:10044A009DC0E1FF9EC0E2FFE66A9BC000F09CC02F
:10045A0001F022DF0A0E01010E6F010E0F6F040E6A
:10046A00106F000E116F49DF9DC0E1FF9EC0E2FFD1
:10047A00010EE66E9BC000F09CC001F00DDF120079
:10048A00360E0001D96F010EDA6F000EDB6F010E16
:10049A00DC6FFF0EE56FFF0EE66F000EE76F000ED2
:1004AA00E86FFF0EF16FFF0EF26F000EF36F000E92
:1004BA00F46FFF0EED6FFF0EEE6F000EEF6F000E82
:1004CA00F06FAC8A900EAB6E948E949C9EAA03D069
:0804DA00AECF00F0FBD71200C9
:1004E200400E010107110B6F0B8108C10CF19DC079
:1004F200E1FF9EC0E2FFE66A9BC000F09CC001F0F3
:10050200CFDE0B0E01010E6F010E0F6F020E106F88
:10051200000E116FF6DE090E0E6F010E0F6F020E46
:10052200106F000E116FC8DE9DC0E1FF9EC0E2FF9A
:10053200010EE66E9BC000F09CC001F0B1DE0AC164
:0405420000F01200B3
:10054600300E01010125006E000E0221016E000E23
:100556000321026E1C0E0024F66E000E0120F76EBB
:10056600000E0220F86E0900F5CFD5F00900F5CF90
:10057600D6F00900F5CFD7F00900F5CFD8F0080E70
:100586000125F66E000E0221F76E000E0321F86EAD
:100596000900F5CF9BF00900F5CF9CF00900F5CFD7
:1005A6009DF00900F5CF9EF0040E0125F66E000EB3
:1005B6000221F76E000E0321F86E0900F5CFE9F06F
:1005C6000900F5CFEAF00900F5CFEBF00900F5CF09
:0405D600ECF0120033
:1005DA0001C1F6FF02C1F7FF03C1F8FF0900F5CF19
:1005EA0093F00900F5CF94F00900F5CF95F00900D2
:1005FA00F5CF96F0040E01010125F66E000E0221D8
:10060A00F76E000E0321F86E0900F5CF8FF009008E
:10061A00F5CF90F00900F5CF91F00900F5CF92F0EF
:02062A001200BC
:10062C0001C1F6FF02C1F7FF03C1F8FF0900F5CFC6
:10063C0007F1040E01010125F66E000E0221F76E82
:10064C00000E0321F86E0900F5CF08F1080E012504
:10065C00F66E000E0221F76E000E0321F86E0900F3
:10066C00F5CF09F10C0E0125F66E000E0221F76E86
:10067C00000E0321F86E0900F5CF0AF1A9DE000E79
:04068C00006E1200EA
:1006900021D0CF0EAF6EAC94F8DE6BD0670EAF6E8C
:1006A000AC94F3DE66D0CF0EAF6EAC84EEDE61D0DC
:1006B000670EAF6EAC84E9DE5CD0440EAF6EAC84E6
:1006C000E4DE57D0220EAF6EAC84DFDE52D0060ED1
:1006D000006E59D0000E006E0101041908E10050AF
:1006E000031905E1120E021902E10151C00AD1E01D
:1006F000000E006E041908E10050031905E1250EF3
:10070000021902E10151800AC9E0000E006E0419CD
:1007100008E10050031905E14B0E021902E10151F5
:10072000000AC1E0000E006E041908E10050031930
:1007300005E1960E021902E10151000AB9E0000E2E
:10074000006E041908E10050031905E1E10E0219D9
:1007500002E10151000AB1E00451000A08E103512D
:10076000010A05E10251C20A02E10151000AAAE0B0
:10077000AED7360E0001976F010E986F000E996F7D
:08078000010E9A6F006A1200DD
:1007880021D0CF0EAF6EAC947CDE6BD0670EAF6E0F
:10079800AC9477DE66D0CF0EAF6EAC8472DE61D0DB
:1007A800670EAF6EAC846DDE5CD0440EAF6EAC8469
:1007B80068DE57D0220EAF6EAC8463DE52D0060ED0
:1007C800006E59D0000E006E0101041908E10050B6
:1007D800031905E1120E021902E10151C00AD1E024
:1007E800000E006E041908E10050031905E1250EFA
:1007F800021902E10151800AC9E0000E006E0419D5
:1008080008E10050031905E14B0E021902E10151FC
:10081800000AC1E0000E006E041908E10050031937
:1008280005E1960E021902E10151000AB9E0000E35
:10083800006E041908E10050031905E1E10E0219E0
:1008480002E10151000AB1E00451000A08E1035134
:10085800010A05E10251C20A02E10151000AAAE0B7
:10086800AED7360E0001976F010E986F000E996F84
:08087800010E9A6F006A1200E4
:1008800038D00F0120870D0E1F6F040E1E6F2185BB
:100890005DDD7ED00F012087060E1F6F820E1E6F5A
:1008A000218554DD75D00F012087030E1F6F400E88
:1008B0001E6F21854BDD6CD00F012087010E1F6F4D
:1008C000A00E1E6F218542DD63D00F012087010E2F
:1008D0001F6F150E1E6F218539DD5AD00F0120873D
:1008E0001F6B8A0E1E6F218531DD52D0060E006E01
:1008F00059D0000E006E0101041908E100500319DF
:1009000005E1120E021902E10151C00ABAE0000E1F
:10091000006E041908E10050031905E1250E0219C3
:1009200002E10151800AB6E0000E006E041908E1F0
:100930000050031905E14B0E021902E10151000AB2
:10094000B2E0000E006E041908E10050031905E141
:10095000960E021902E10151000AAEE0000E006E8F
:10096000041908E10050031905E1E10E021902E142
:100970000151000AAAE00451000A08E10351010AEA
:1009800005E10251C20A02E10151000AA7E0AED717
:10099000D20E0001976F000E986F000E996F010E36
:0609A0009A6F006A1200CC
:1009A60001C1F6FF02C1F7FF03C1F8FF0900F5CF49
:1009B60007F1040E01010125F66E000E0221F76E05
:1009C600000E0321F86E0900F5CF08F1080E012587
:1009D600F66E000E0221F76E000E0321F86E090076
:1009E600F5CF09F10C0E0125F66E000E0221F76E09
:1009F600000E0321F86E0900F5CF0AF1ECDC000EBB
:040A0600006E12006C
:100A0A0021D0CF0EAF6EAC943BDD6BD0670EAF6ECC
:100A1A00AC9436DD66D0CF0EAF6EAC8431DD61D0DA
:100A2A00670EAF6EAC842CDD5CD0440EAF6EAC8426
:100A3A0027DD57D0220EAF6EAC8422DD52D0060ECF
:100A4A00006E59D0000E006E0101041908E1005031
:100A5A00031905E1120E021902E10151C00AD1E09F
:100A6A00000E006E041908E10050031905E1250E75
:100A7A00021902E10151800AC9E0000E006E041950
:100A8A0008E10050031905E14B0E021902E1015178
:100A9A00000AC1E0000E006E041908E100500319B3
:100AAA0005E1960E021902E10151000AB9E0000EB1
:100ABA00006E041908E10050031905E1E10E02195C
:100ACA0002E10151000AB1E00451000A08E10351B0
:100ADA00010A05E10251C20A02E10151000AAAE033
:100AEA00AED7360E0001976F010E986F000E996F00
:080AFA00010E9A6F006A120060
:100B0200090E0B6E1E0E0C6EE40E0D6E0D2EFED730
:0C0B12000C2EFCD70B2EFAD700001200AE
:100B1E0059D0010102B102D0929201D092820F01FE
:100B2E00259376D0010102B102D0929801D092881D
:100B3E006FD0010102B102D0969201D0968268D098
:100B4E00010102B102D0949601D0948661D00101C8
:100B5E0002B102D0949801D094885AD0010102B10A
:100B6E0002D0949A01D0948A53D0010102B102D0DE
:100B7E00949401D094844CD0010102B102D093928E
:100B8E0001D0938245D0010102B102D0949E01D0D2
:100B9E00948E3ED0010102B102D0949C01D0948C6F
:100BAE0037D0010102B102D0949601D0948630D094
:100BBE00010102B102D0949801D0948829D0010E7F
:100BCE00006E28D001010151000AA3E00151010A73
:100BDE00A9E00151020AADE00151030AB1E0015151
:100BEE00040AB5E00151050AB9E00151060ABDE05B
:100BFE000151070AC1E00151080AC5E00151090A75
:100C0E00C9E001510A0ACDE001510B0AD1E0D7D754
:060C1E00000E006E120042
:100C240001C107F1140E0101086F02C109F103DCCF
:020C34001200AC
:100C36000001FF6B050EFF5D0CE2FF51010103256C
:100C4600E16E000E0421E26E200EE66E0001FF2B1F
:100C5600F1D7FF5101010325E16E000E0421E26E7A
:100C6600E66A0001FF07FF5101010325056F000E2B
:100C76000421066F0A0E046E000E056E01C100F017
:100C860002C101F0D3EC01F008C000F009C001F088
:100C9600300E002605C1E1FF06C1E2FF00C0E6FFF7
:100CA6000A0E046E000E056E01C100F002C101F0CD
:100CB600D3EC01F000C001F101C002F1000E0118F1
:100CC60002E1000E001801E103D00001FF07CBD7B7
:020CD60012000A
:100CD800FFC007F1130E0101086F71EC02F012005A
:100CE80059D0010102B102D0929001D092800F0137
:100CF800259176D0010102B102D0949001D0948060
:100D08006FD0010102B102D0969001D0968068D0D0
:100D1800010102B102D0949601D0948661D00101FC
:100D280002B102D0949801D094885AD0010102B13E
:100D380002D0949A01D0948A53D0010102B102D012
:100D4800949201D094824CD0010102B102D09390C8
:100D580001D0938045D0010102B102D0949E01D008
:100D6800948E3ED0010102B102D0949C01D0948CA3
:100D780037D0010102B102D0949601D0948630D0C8
:100D8800010102B102D0949801D0948829D0010EB3
:100D9800006E28D001010151000AA3E00151010AA7
:100DA800A9E00151020AADE00151030AB1E0015185
:100DB800040AB5E00151050AB9E00151060ABDE08F
:100DC8000151070AC1E00151080AC5E00151090AA9
:100DD800C9E001510A0ACDE001510B0AD1E0D7D789
:060DE800000E006E120077
:100DEE0001C1F6FF02C1F7FF03C1F8FF0900F5CFFD
:100DFE0007F1040E01010125F66E000E0221F76EB9
:100E0E00000E0321F86E0900F5CF08F1080E01253A
:100E1E00F66E000E0221F76E000E0321F86E090029
:100E2E00F5CF09F10C0E0125F66E000E0221F76EBC
:100E3E00000E0321F86E0900F5CF0AF1EEEC01F079
:060E4E00000E006E120010
:100E540099C0E1FF9AC0E2FF01C1E9FF02C1EAFFC4
:100E6400EECFE6FF97C000F098C001F051EC01F01E
:040E7400006A1200FE
:100E78005DD0010102B102D0929401D092840F0199
:100E880025957AD0010102B102D0969601D09686B6
:100E980073D0010102B102D0969401D096846CD02F
:100EA800010102B102D0949601D0948665D0010167
:100EB80002B102D0949801D094885ED0010102B1A9
:100EC80002D0949A01D0948A57D0010102B102D07D
:100ED800989001D0988050D0010102B102D093942B
:100EE80001D0938449D0010102B102D0989401D075
:100EF80098840F01239540D0010102B102D0989245
:100F080001D098820F01239337D0010102B102D09A
:100F1800949601D0948630D0010102B102D0949801
:100F280001D0948829D0010E006E28D0010101510A
:100F3800000A9FE00151010AA5E00151020AA9E057
:100F48000151030AADE00151040AB1E00151050A5B
:100F5800B5E00151060AB9E00151070ABDE00151A7
:100F6800080AC1E00151090AC7E001510A0ACDE0A7
:0E0F780001510B0AD1E0D7D7000E006E120017
:100F86002DD0F6C001F1F7C002F1F8C003F1F9C0A7
:100F960004F148EC03F030D0F6C001F1F7C002F1DD
:100FA600F8C003F1F9C004F1C4EC03F025D0F6C093
:100FB60001F1F7C002F1F8C003F1F9C004F15DDCFC
:100FC6001BD0F6C001F1F7C002F1F8C003F1F9C079
:100FD60004F118DD11D0010E006E0ED00001F5519E
:100FE600000ACFE0F551010AD7E0F551020ADFE029
:0A0FF600F551100AE6E0EFD71200F3
:1010000015D0F6C001F1F7C002F16EDE1AD0F6C0BD
:1010100001F1F7C002F183DD14D0F6C001F1F7C091
:1010200002F12ADF0ED0010E006E0BD00001F55147
:10103000000AE7E0F551010AEAE0F551020AEDE0A5
:04104000F2D71200D1
:101044001CD0F6C001F1F7C002F1F8C003F1CDDE07
:101054001FD0F6C001F1F7C002F1F8C003F116EC9D
:1010640003F016D0F6C001F1F7C002F1F8C003F1A5
:1010740098DC0ED0010E006E0BD00001F551000A71
:10108400E0E0F551010AE5E0F551020AEBE0F2D7A0
:02109400120048
:101096000001F66BF5C007F10A0E0101086F280E74
:1010A600096F1DEC02F00001F6530BE10101016B23
:1010B600010E026FB4DD0001FF6B0BDE00C0F6F01F
:0410C600F2D712004B
:1010CA00F5C007F1090E0101086FF6C009F11DEC20
:0410DA0002F012000E
:1010DE000001FB6BFC6BF5C0FDF0F6C0FEF0800E60
:1010EE00F619006E800E005C02E1000EF55D0BE25B
:1010FE00010EFB6F000EFC6FF5510008FD6FF6C080
:10110E00FEF0000EFE57FDC001F1FEC002F1F7C069
:10111E0003F1F8C004F188DD060E0001F96F000E30
:10112E00FA6F000E006EFA51005C02E1F9510008F0
:10113E0019E2F951F725E16EFA51F821E26E010E2E
:10114E00F95D006E000EFA59016E0050F725E96E3A
:10115E000150F821EA6EEECFE6FF010EF95F000EA8
:10116E00FA5BDFD7F7C0E1FFF8C0E2FF200EE66EB4
:10117E00FB51FC111AE0F96BFA6BF951F725E96E88
:10118E00FA51F821EA6EEE50200A03E1F94BFA2BE0
:10119E00F4D7010EF95F000EFA5BF951F725E16EF7
:0C11AE00FA51F821E26E2D0EE66E1200E0
:1011BA000001F76BF86BF5C003F0F6C004F0F5C058
:1011CA0005F0F6C006F003C0E9FF04C0EAFFEE50DE
:1011DA00200A04E1F751F81101E110D0010EF76F6E
:1011EA00000EF86F03C0E9FF04C0EAFF05C0E1FF83
:1011FA0006C0E2FFEECFE6FF054A062A03C001F069
:10120A0004C002F0034A042A01C0E9FF02C0EAFF4F
:10121A00EE50000AD8E1F5C000F0F6C001F0120065
:10122A00F5C007F1080E0101086FF6C009F11DECBF
:04123A0002F01200AC
:10123E00F8C001F1F9C002F1FAC003F1EDEC02F0D1
:10124E00F5C001F1F6C002F1F7C003F1A3EC02F014
:10125E009DC0E1FF9EC0E2FF010EE66E9BC000F056
:0A126E009CC001F051EC01F01200E9
:10127800EBC0E1FFECC0E2FF010EE66EE9C000F052
:10128800EAC001F051EC01F038DCEBC0E1FFECC042
:10129800E2FFE66AE9C000F0EAC001F051EC01F0B3
:1012A8002CDCEBC0E1FFECC0E2FF010EE66EE9C00A
:0E12B80000F0EAC001F051EC01F01FDC120062
:1012C600F5C0F8F0F6C0F9F00D0E0001FA6F0A0E3F
:1012D600FB6F35D0F8C001F1F9C002F1B8DD3AD0A4
:1012E600F8C0E9FFF9C0EAFFEE5209E0F8C001F1E3
:1012F600F9C002F1ACDD0001F84BF92BF1D72AD089
:10130600F8C0E9FFF9C0EAFFEE5209E0F8C001F1C2
:10131600F9C002F19CDD0001F84BF92BF1D7FA0E6A
:101326000101016F000E026F92DDFB0E0101016FDC
:10133600000E026F8CDD0ED0060E006E0CD0000182
:10134600F751000AC7E0F751010ACAE0F751020A4D
:08135600D7E0F2D7006A120093
:10135E000001F56B070EF66F010EF76F4ADE000106
:10136E00F56B020EF66FF76B44DE0001F56B010EA6
:10137E00F66FF76B3EDE0001F56B3E0EF66F160E46
:10138E00F76F000EF86F57DE100E0001F56F800E2E
:10139E00F66F250EF76F000EF86FF96FEDDD090E83
:1013AE000B6E1E0E0C6EE40E0D6E0D2EFED70C2E59
:0A13BE00FCD70B2EFAD70000120036
:1013C8000900F5CFE6FF0006FBE10106F9E112008E
:1013D800DE0E0001F56F150EF66F000EF76F4E0E5C
:1013E800F86F160EF96F000EFA6F25DF41DF520E07
:1013F8000B6E2B0E0C6E000E0D6E0D2EFED70C2EE6
:10140800FCD70B2EFAD70000150E0001F56F000E61
:10141800F66F020EF76F53DF480E0001F56F000EEE
:10142800F66F020EF76F4BDF370E0001F56F000EF7
:10143800F66F020EF76F43DF000E0001F56F000E26
:10144800F66FEFDE000E0001F56FFF0EF66F39DE66
:101458007E0E0001F56F000EF66F020EF76F2FDF9C
:101468006D0E0001F56F000EF66F020EF76F27DFA5
:0A147800000E0001F56F0BDE1200FC
:10148200010E0001D36F000ED46FD26B080ED25D35
:1014920060E2000E0101016FD3C002F112EC06F00E
:1014A20081EC05F0000E0001FF6F15DC00C0D1F0E9
:1014B200D2C0F5F0000E0001F66F9F0EF76F000E1E
:1014C200F86F0CDE630EF56F000EF66F010EF76F0C
:1014D200F9DE9F0E0001F56F000EF66F6DDE9F0EB6
:1014E200F56F000EF66F020EF76FECDED1C0F5F06D
:1014F200000E0001F66F9F0EF76F000EF86FEEDD23
:10150200590EF56F000EF66F010EF76FDBDE9F0EC0
:101512000001F56F000EF66F020EF76FD3DE260E96
:101522000001F56F000EF66F020EF76FCBDE0001C1
:10153200D337D391D437F40E0B6E820E0C6E050E98
:101542000D6E0D2EFED70C2EFCD70B2EFAD7D22BFA
:041552009DD712000F
:0E1556002BEC0BF001DF3DDF91DFFED7FFD75E
:1016560010EE15F07A0E006E010E016E640EF66E37
:0E166600150EF76E000EF86EE4EC09F012009F
:101564002D2D2D2D2D2D2D2D2D2D2D2D2D2D2D2DA7
:011574000076
:101575002D2D2D2D2D2D2D2D2D2D2D2D2D2D2D2D96
:011585000065
:101586002D2D2D2D2D2D2D2D2D2D2D2D2D2D2D2D85
:011596000054
:101597002020457870616E6420436C69636B20205E
:0115A7000043
:0A15A8002020504F5254423A200018
:0A15B20020202020202020524100BC
:1015BC002D2D2D2D2D2D2D2D2D2D2D2D2D2D2D2D4F
:0115CC00001E
:1015CD0020436F6E6669677572696E672E2E2E20C9
:0115DD00000D
:1015DE00E2000001F00000016E0100017C0100013B
:1015EE008A01000144010001520100016001000165
:1015FE00C400000146000001540000016200000119
:10160E00FFFFFFFFFFFFFFFFFFFFFFFFFFFFFFFFDC
:10161E00FFFFFFFFFFFFFFFFFFFFFFFFFFFFFFFFCC
:10162E00FFFFFFFFFFFFFFFFFFFFFFFFFFFFFFFFBC
:10163E000200000000000000000000000100000099
:08164E00FE000001DE010001B5
:020000040030CA
:0E00000015137F7CF98B91FFFFC0FFE0FF40DE
:00000001FF
